{
  "_format": "hh-sol-artifact-1",
  "contractName": "ContractManagerSol",
  "sourceName": "contracts/ContractManagerSol.sol",
  "abi": [
    {
      "inputs": [
        {
          "internalType": "string",
          "name": "_name",
          "type": "string"
        }
      ],
      "name": "createTicket",
      "outputs": [],
      "stateMutability": "nonpayable",
      "type": "function"
    },
    {
      "inputs": [],
      "name": "getTickets",
      "outputs": [
        {
          "components": [
            {
              "internalType": "uint8",
              "name": "status",
              "type": "uint8"
            },
            {
              "internalType": "string",
              "name": "name",
              "type": "string"
            }
          ],
          "internalType": "struct ContractManagerSol.Ticket[]",
          "name": "",
          "type": "tuple[]"
        }
      ],
      "stateMutability": "view",
      "type": "function"
    },
    {
      "inputs": [
        {
          "internalType": "uint256",
          "name": "",
          "type": "uint256"
        }
      ],
      "name": "tickets",
      "outputs": [
        {
          "internalType": "uint8",
          "name": "status",
          "type": "uint8"
        },
        {
          "internalType": "string",
          "name": "name",
          "type": "string"
        }
      ],
      "stateMutability": "view",
      "type": "function"
    },
    {
      "inputs": [
        {
          "internalType": "uint256",
          "name": "_index",
          "type": "uint256"
        },
        {
          "internalType": "string",
          "name": "_name",
          "type": "string"
        }
      ],
      "name": "updateTicketName",
      "outputs": [],
      "stateMutability": "nonpayable",
      "type": "function"
    },
    {
      "inputs": [
        {
          "internalType": "uint256",
          "name": "_index",
          "type": "uint256"
        },
        {
          "internalType": "uint8",
          "name": "_status",
          "type": "uint8"
        }
      ],
      "name": "updateTicketStatus",
      "outputs": [],
      "stateMutability": "nonpayable",
      "type": "function"
    }
  ],
  "bytecode": "0x608060405234801561001057600080fd5b5061071a806100206000396000f3fe608060405234801561001057600080fd5b50600436106100575760003560e01c80634ed026221461005c57806350b447121461007a5780636897082f1461009b578063a460b817146100b0578063d4ab7b83146100c3575b600080fd5b6100646100d6565b604051610071919061048a565b60405180910390f35b61008d610088366004610501565b6101d6565b60405161007192919061051a565b6100ae6100a93660046105e1565b610292565b005b6100ae6100be366004610616565b61032d565b6100ae6100d136600461064c565b610367565b60606000805480602002602001604051908101604052809291908181526020016000905b828210156101cd5760008481526020908190206040805180820190915260028502909101805460ff168252600181018054929391929184019161013c90610693565b80601f016020809104026020016040519081016040528092919081815260200182805461016890610693565b80156101b55780601f1061018a576101008083540402835291602001916101b5565b820191906000526020600020905b81548152906001019060200180831161019857829003601f168201915b505050505081525050815260200190600101906100fa565b50505050905090565b600081815481106101e657600080fd5b60009182526020909120600290910201805460018201805460ff90921693509061020f90610693565b80601f016020809104026020016040519081016040528092919081815260200182805461023b90610693565b80156102885780601f1061025d57610100808354040283529160200191610288565b820191906000526020600020905b81548152906001019060200180831161026b57829003601f168201915b5050505050905082565b6040805180820190915260008082526020808301848152825460018101845592805283517f290decd9548b62a8d60345a988386fc84ba6bc95484008f6362f93160ef3e5636002909402938401805460ff191660ff909216919091178155905180519193610327937f290decd9548b62a8d60345a988386fc84ba6bc95484008f6362f93160ef3e564909101929101906103a4565b50505050565b8060008381548110610341576103416106ce565b60009182526020909120600290910201805460ff191660ff929092169190911790555050565b806000838154811061037b5761037b6106ce565b9060005260206000209060020201600101908051906020019061039f9291906103a4565b505050565b8280546103b090610693565b90600052602060002090601f0160209004810192826103d25760008555610418565b82601f106103eb57805160ff1916838001178555610418565b82800160010185558215610418579182015b828111156104185782518255916020019190600101906103fd565b50610424929150610428565b5090565b5b808211156104245760008155600101610429565b6000815180845260005b8181101561046357602081850181015186830182015201610447565b81811115610475576000602083870101525b50601f01601f19169290920160200192915050565b60006020808301818452808551808352604092508286019150828160051b87010184880160005b838110156104f357888303603f190185528151805160ff1684528701518784018790526104e08785018261043d565b95880195935050908601906001016104b1565b509098975050505050505050565b60006020828403121561051357600080fd5b5035919050565b60ff83168152604060208201526000610536604083018461043d565b949350505050565b634e487b7160e01b600052604160045260246000fd5b600082601f83011261056557600080fd5b813567ffffffffffffffff808211156105805761058061053e565b604051601f8301601f19908116603f011681019082821181831017156105a8576105a861053e565b816040528381528660208588010111156105c157600080fd5b836020870160208301376000602085830101528094505050505092915050565b6000602082840312156105f357600080fd5b813567ffffffffffffffff81111561060a57600080fd5b61053684828501610554565b6000806040838503121561062957600080fd5b82359150602083013560ff8116811461064157600080fd5b809150509250929050565b6000806040838503121561065f57600080fd5b82359150602083013567ffffffffffffffff81111561067d57600080fd5b61068985828601610554565b9150509250929050565b600181811c908216806106a757607f821691505b602082108114156106c857634e487b7160e01b600052602260045260246000fd5b50919050565b634e487b7160e01b600052603260045260246000fdfea26469706673582212204bb55bc83e6947c62614b1573321b50a7efb38816f63c7eee67609eec214bbed64736f6c63430008090033",
  "linkReferences": {},
  "deployedLinkReferences": {}
}