{
  "_format": "hh-sol-artifact-1",
  "contractName": "helloworld3",
  "sourceName": "contracts/helloworld3.sol",
  "abi": [
    {
      "inputs": [],
      "name": "get",
      "outputs": [
        {
          "internalType": "string",
          "name": "",
          "type": "string"
        }
      ],
      "stateMutability": "view",
      "type": "function"
    },
    {
      "inputs": [
        {
          "internalType": "string",
          "name": "finalValue",
          "type": "string"
        }
      ],
      "name": "set",
      "outputs": [],
      "stateMutability": "nonpayable",
      "type": "function"
    }
  ],
  "bytecode": "0x608060405234801561001057600080fd5b5061033d806100206000396000f3fe608060405234801561001057600080fd5b50600436106100365760003560e01c80634ed3885e1461003b5780636d4ce63c14610050575b600080fd5b61004e6100493660046101c6565b61006e565b005b610058610085565b6040516100659190610277565b60405180910390f35b8051610081906000906020840190610117565b5050565b606060008054610094906102cc565b80601f01602080910402602001604051908101604052809291908181526020018280546100c0906102cc565b801561010d5780601f106100e25761010080835404028352916020019161010d565b820191906000526020600020905b8154815290600101906020018083116100f057829003601f168201915b5050505050905090565b828054610123906102cc565b90600052602060002090601f016020900481019282610145576000855561018b565b82601f1061015e57805160ff191683800117855561018b565b8280016001018555821561018b579182015b8281111561018b578251825591602001919060010190610170565b5061019792915061019b565b5090565b5b80821115610197576000815560010161019c565b634e487b7160e01b600052604160045260246000fd5b6000602082840312156101d857600080fd5b813567ffffffffffffffff808211156101f057600080fd5b818401915084601f83011261020457600080fd5b813581811115610216576102166101b0565b604051601f8201601f19908116603f0116810190838211818310171561023e5761023e6101b0565b8160405282815287602084870101111561025757600080fd5b826020860160208301376000928101602001929092525095945050505050565b600060208083528351808285015260005b818110156102a457858101830151858201604001528201610288565b818111156102b6576000604083870101525b50601f01601f1916929092016040019392505050565b600181811c908216806102e057607f821691505b6020821081141561030157634e487b7160e01b600052602260045260246000fd5b5091905056fea2646970667358221220b3f997c59be1b49d77838553025134861012a0c9ed375c1a2bec3ae40b84007764736f6c63430008090033",
  "linkReferences": {},
  "deployedLinkReferences": {}
}