{
  "_format": "hh-sol-artifact-1",
  "contractName": "Counter",
  "sourceName": "contracts/Counter.sol",
  "abi": [
    {
      "anonymous": false,
      "inputs": [
        {
          "indexed": false,
          "internalType": "uint256",
          "name": "oldValue",
          "type": "uint256"
        },
        {
          "indexed": false,
          "internalType": "uint256",
          "name": "newValue",
          "type": "uint256"
        }
      ],
      "name": "ValueChanged",
      "type": "event"
    },
    {
      "inputs": [],
      "name": "getCount",
      "outputs": [
        {
          "internalType": "uint256",
          "name": "",
          "type": "uint256"
        }
      ],
      "stateMutability": "view",
      "type": "function"
    },
    {
      "inputs": [],
      "name": "increment",
      "outputs": [],
      "stateMutability": "nonpayable",
      "type": "function"
    }
  ],
  "bytecode": "0x60806040526000805534801561001457600080fd5b5061012a806100246000396000f3fe6080604052348015600f57600080fd5b506004361060325760003560e01c8063a87d942c146037578063d09de08a14604c575b600080fd5b60005460405190815260200160405180910390f35b60526054565b005b60016000808282546064919060cb565b90915550506000547f2db947ef788961acc438340dbcb4e242f80d026b621b7c98ee306199503903829060989060019060e0565b6000546040805192835260208301919091520160405180910390a1565b634e487b7160e01b600052601160045260246000fd5b6000821982111560db5760db60b5565b500190565b60008282101560ef5760ef60b5565b50039056fea2646970667358221220651a55953ca7d1722ac6d6fa3b2d0be7ff1d44bc087afbefe93d6184955ed8e364736f6c63430008090033",
  "linkReferences": {},
  "deployedLinkReferences": {}
}