{"contracts/EventEmitter.sol":{"EventEmitter":{"abi":[{"inputs":[],"stateMutability":"nonpayable","type":"constructor"},{"anonymous":false,"inputs":[],"name":"ConstructorEvent","type":"event"},{"anonymous":false,"inputs":[],"name":"MyEvent","type":"event"},{"anonymous":false,"inputs":[{"indexed":false,"internalType":"uint256","name":"","type":"uint256"},{"indexed":false,"internalType":"string","name":"","type":"string"}],"name":"MyEventWithData","type":"event"},{"inputs":[{"internalType":"uint256","name":"x","type":"uint256"},{"internalType":"string","name":"s","type":"string"}],"name":"emitBothEvents","outputs":[],"stateMutability":"nonpayable","type":"function"},{"inputs":[],"name":"emitMyEvent","outputs":[],"stateMutability":"nonpayable","type":"function"},{"inputs":[{"internalType":"uint256","name":"x","type":"uint256"},{"internalType":"string","name":"s","type":"string"}],"name":"emitMyEventWithData","outputs":[],"stateMutability":"nonpayable","type":"function"}],"evm":{"bytecode":{"linkReferences":{},"object":"608060405234801561001057600080fd5b506040517f8d8cf4a5428f07ff52f5ac64c4cf7d30fd3ad16b6c04aabbf5386e8e272e03b390600090a1610225806100496000396000f3fe608060405234801561001057600080fd5b50600436106100415760003560e01c80632bb969e6146100465780637600232d14610050578063c26f3c6914610063575b600080fd5b61004e610076565b005b61004e61005e36600461013d565b6100a1565b61004e61007136600461013d565b61010a565b6040517f4dbfb68b43dddfa12b51ebe99ab8fded620f9a0ac23142879a4f192a1b7952d290600090a1565b6040517f4dbfb68b43dddfa12b51ebe99ab8fded620f9a0ac23142879a4f192a1b7952d290600090a17f70cfecbfed19ac7dcd94d8821e2895b8d2bbbd12ac7d81586659183bc5019aea8383836040516100fd939291906101b9565b60405180910390a1505050565b7f70cfecbfed19ac7dcd94d8821e2895b8d2bbbd12ac7d81586659183bc5019aea8383836040516100fd939291906101b9565b60008060006040848603121561015257600080fd5b83359250602084013567ffffffffffffffff8082111561017157600080fd5b818601915086601f83011261018557600080fd5b81358181111561019457600080fd5b8760208285010111156101a657600080fd5b6020830194508093505050509250925092565b83815260406020820152816040820152818360608301376000818301606090810191909152601f909201601f191601019291505056fea264697066735822122016aafb061c43929d1b5ab3f6d2046a742cf8c6b21a2d0450a4c6b60e264325c864736f6c63430008090033","opcodes":"PUSH1 0x80 PUSH1 0x40 MSTORE CALLVALUE DUP1 ISZERO PUSH2 0x10 JUMPI PUSH1 0x0 DUP1 REVERT JUMPDEST POP PUSH1 0x40 MLOAD PUSH32 0x8D8CF4A5428F07FF52F5AC64C4CF7D30FD3AD16B6C04AABBF5386E8E272E03B3 SWAP1 PUSH1 0x0 SWAP1 LOG1 PUSH2 0x225 DUP1 PUSH2 0x49 PUSH1 0x0 CODECOPY PUSH1 0x0 RETURN INVALID PUSH1 0x80 PUSH1 0x40 MSTORE CALLVALUE DUP1 ISZERO PUSH2 0x10 JUMPI PUSH1 0x0 DUP1 REVERT JUMPDEST POP PUSH1 0x4 CALLDATASIZE LT PUSH2 0x41 JUMPI PUSH1 0x0 CALLDATALOAD PUSH1 0xE0 SHR DUP1 PUSH4 0x2BB969E6 EQ PUSH2 0x46 JUMPI DUP1 PUSH4 0x7600232D EQ PUSH2 0x50 JUMPI DUP1 PUSH4 0xC26F3C69 EQ PUSH2 0x63 JUMPI JUMPDEST PUSH1 0x0 DUP1 REVERT JUMPDEST PUSH2 0x4E PUSH2 0x76 JUMP JUMPDEST STOP JUMPDEST PUSH2 0x4E PUSH2 0x5E CALLDATASIZE PUSH1 0x4 PUSH2 0x13D JUMP JUMPDEST PUSH2 0xA1 JUMP JUMPDEST PUSH2 0x4E PUSH2 0x71 CALLDATASIZE PUSH1 0x4 PUSH2 0x13D JUMP JUMPDEST PUSH2 0x10A JUMP JUMPDEST PUSH1 0x40 MLOAD PUSH32 0x4DBFB68B43DDDFA12B51EBE99AB8FDED620F9A0AC23142879A4F192A1B7952D2 SWAP1 PUSH1 0x0 SWAP1 LOG1 JUMP JUMPDEST PUSH1 0x40 MLOAD PUSH32 0x4DBFB68B43DDDFA12B51EBE99AB8FDED620F9A0AC23142879A4F192A1B7952D2 SWAP1 PUSH1 0x0 SWAP1 LOG1 PUSH32 0x70CFECBFED19AC7DCD94D8821E2895B8D2BBBD12AC7D81586659183BC5019AEA DUP4 DUP4 DUP4 PUSH1 0x40 MLOAD PUSH2 0xFD SWAP4 SWAP3 SWAP2 SWAP1 PUSH2 0x1B9 JUMP JUMPDEST PUSH1 0x40 MLOAD DUP1 SWAP2 SUB SWAP1 LOG1 POP POP POP JUMP JUMPDEST PUSH32 0x70CFECBFED19AC7DCD94D8821E2895B8D2BBBD12AC7D81586659183BC5019AEA DUP4 DUP4 DUP4 PUSH1 0x40 MLOAD PUSH2 0xFD SWAP4 SWAP3 SWAP2 SWAP1 PUSH2 0x1B9 JUMP JUMPDEST PUSH1 0x0 DUP1 PUSH1 0x0 PUSH1 0x40 DUP5 DUP7 SUB SLT ISZERO PUSH2 0x152 JUMPI PUSH1 0x0 DUP1 REVERT JUMPDEST DUP4 CALLDATALOAD SWAP3 POP PUSH1 0x20 DUP5 ADD CALLDATALOAD PUSH8 0xFFFFFFFFFFFFFFFF DUP1 DUP3 GT ISZERO PUSH2 0x171 JUMPI PUSH1 0x0 DUP1 REVERT JUMPDEST DUP2 DUP7 ADD SWAP2 POP DUP7 PUSH1 0x1F DUP4 ADD SLT PUSH2 0x185 JUMPI PUSH1 0x0 DUP1 REVERT JUMPDEST DUP2 CALLDATALOAD DUP2 DUP2 GT ISZERO PUSH2 0x194 JUMPI PUSH1 0x0 DUP1 REVERT JUMPDEST DUP8 PUSH1 0x20 DUP3 DUP6 ADD ADD GT ISZERO PUSH2 0x1A6 JUMPI PUSH1 0x0 DUP1 REVERT JUMPDEST PUSH1 0x20 DUP4 ADD SWAP5 POP DUP1 SWAP4 POP POP POP POP SWAP3 POP SWAP3 POP SWAP3 JUMP JUMPDEST DUP4 DUP2 MSTORE PUSH1 0x40 PUSH1 0x20 DUP3 ADD MSTORE DUP2 PUSH1 0x40 DUP3 ADD MSTORE DUP2 DUP4 PUSH1 0x60 DUP4 ADD CALLDATACOPY PUSH1 0x0 DUP2 DUP4 ADD PUSH1 0x60 SWAP1 DUP2 ADD SWAP2 SWAP1 SWAP2 MSTORE PUSH1 0x1F SWAP1 SWAP3 ADD PUSH1 0x1F NOT AND ADD ADD SWAP3 SWAP2 POP POP JUMP INVALID LOG2 PUSH5 0x6970667358 0x22 SLT KECCAK256 AND 0xAA 0xFB MOD SHR NUMBER SWAP3 SWAP14 SHL GAS 0xB3 0xF6 0xD2 DIV PUSH11 0x742CF8C6B21A2D0450A4C6 0xB6 0xE 0x26 NUMBER 0x25 0xC8 PUSH5 0x736F6C6343 STOP ADDMOD MULMOD STOP CALLER "},"methodIdentifiers":{"emitBothEvents(uint256,string)":"7600232d","emitMyEvent()":"2bb969e6","emitMyEventWithData(uint256,string)":"c26f3c69"}}}}}