{"contracts/SimpleSidetreeAnchor.sol":{"SimpleSidetreeAnchor":{"abi":[{"anonymous":false,"inputs":[{"indexed":false,"internalType":"bytes32","name":"anchorFileHash","type":"bytes32"},{"indexed":true,"internalType":"uint256","name":"transactionNumber","type":"uint256"},{"indexed":false,"internalType":"uint256","name":"numberOfOperations","type":"uint256"},{"indexed":false,"internalType":"address","name":"writer","type":"address"}],"name":"Anchor","type":"event"},{"inputs":[{"internalType":"bytes32","name":"_anchorHash","type":"bytes32"},{"internalType":"uint256","name":"_numberOfOperations","type":"uint256"}],"name":"anchorHash","outputs":[],"stateMutability":"nonpayable","type":"function"},{"inputs":[],"name":"transactionNumber","outputs":[{"internalType":"uint256","name":"","type":"uint256"}],"stateMutability":"view","type":"function"}],"evm":{"bytecode":{"linkReferences":{},"object":"60806040526000805534801561001457600080fd5b50610133806100246000396000f3fe6080604052348015600f57600080fd5b506004361060325760003560e01c80634cd27ad5146037578063aac4c5c4146048575b600080fd5b6046604236600460b7565b6062565b005b605060005481565b60405190815260200160405180910390f35b6000546040805184815260208101849052338183015290517fb4f61711f79e76c7c0495763576465dc425bc281adf632799374ab5c83bc1d459181900360600190a260005460b090600160d8565b6000555050565b6000806040838503121560c957600080fd5b50508035926020909101359150565b6000821982111560f857634e487b7160e01b600052601160045260246000fd5b50019056fea264697066735822122040529ba4ec9d5291b4b1d4fb02c91fb1078d45ee415ba1ebd9e292558c7b3d6864736f6c63430008090033","opcodes":"PUSH1 0x80 PUSH1 0x40 MSTORE PUSH1 0x0 DUP1 SSTORE CALLVALUE DUP1 ISZERO PUSH2 0x14 JUMPI PUSH1 0x0 DUP1 REVERT JUMPDEST POP PUSH2 0x133 DUP1 PUSH2 0x24 PUSH1 0x0 CODECOPY PUSH1 0x0 RETURN INVALID PUSH1 0x80 PUSH1 0x40 MSTORE CALLVALUE DUP1 ISZERO PUSH1 0xF JUMPI PUSH1 0x0 DUP1 REVERT JUMPDEST POP PUSH1 0x4 CALLDATASIZE LT PUSH1 0x32 JUMPI PUSH1 0x0 CALLDATALOAD PUSH1 0xE0 SHR DUP1 PUSH4 0x4CD27AD5 EQ PUSH1 0x37 JUMPI DUP1 PUSH4 0xAAC4C5C4 EQ PUSH1 0x48 JUMPI JUMPDEST PUSH1 0x0 DUP1 REVERT JUMPDEST PUSH1 0x46 PUSH1 0x42 CALLDATASIZE PUSH1 0x4 PUSH1 0xB7 JUMP JUMPDEST PUSH1 0x62 JUMP JUMPDEST STOP JUMPDEST PUSH1 0x50 PUSH1 0x0 SLOAD DUP2 JUMP JUMPDEST PUSH1 0x40 MLOAD SWAP1 DUP2 MSTORE PUSH1 0x20 ADD PUSH1 0x40 MLOAD DUP1 SWAP2 SUB SWAP1 RETURN JUMPDEST PUSH1 0x0 SLOAD PUSH1 0x40 DUP1 MLOAD DUP5 DUP2 MSTORE PUSH1 0x20 DUP2 ADD DUP5 SWAP1 MSTORE CALLER DUP2 DUP4 ADD MSTORE SWAP1 MLOAD PUSH32 0xB4F61711F79E76C7C0495763576465DC425BC281ADF632799374AB5C83BC1D45 SWAP2 DUP2 SWAP1 SUB PUSH1 0x60 ADD SWAP1 LOG2 PUSH1 0x0 SLOAD PUSH1 0xB0 SWAP1 PUSH1 0x1 PUSH1 0xD8 JUMP JUMPDEST PUSH1 0x0 SSTORE POP POP JUMP JUMPDEST PUSH1 0x0 DUP1 PUSH1 0x40 DUP4 DUP6 SUB SLT ISZERO PUSH1 0xC9 JUMPI PUSH1 0x0 DUP1 REVERT JUMPDEST POP POP DUP1 CALLDATALOAD SWAP3 PUSH1 0x20 SWAP1 SWAP2 ADD CALLDATALOAD SWAP2 POP JUMP JUMPDEST PUSH1 0x0 DUP3 NOT DUP3 GT ISZERO PUSH1 0xF8 JUMPI PUSH4 0x4E487B71 PUSH1 0xE0 SHL PUSH1 0x0 MSTORE PUSH1 0x11 PUSH1 0x4 MSTORE PUSH1 0x24 PUSH1 0x0 REVERT JUMPDEST POP ADD SWAP1 JUMP INVALID LOG2 PUSH5 0x6970667358 0x22 SLT KECCAK256 BLOCKHASH MSTORE SWAP12 LOG4 0xEC SWAP14 MSTORE SWAP2 0xB4 0xB1 0xD4 0xFB MUL 0xC9 0x1F 0xB1 SMOD DUP14 GASLIMIT 0xEE COINBASE JUMPDEST LOG1 0xEB 0xD9 0xE2 SWAP3 SSTORE DUP13 PUSH28 0x3D6864736F6C63430008090033000000000000000000000000000000 "},"methodIdentifiers":{"anchorHash(bytes32,uint256)":"4cd27ad5","transactionNumber()":"aac4c5c4"}}}}}